:100000000C941E010C943B010C943B010C943B019D
:100010000C943B010C943B010C943B010C943B0170
:100020000C943B010C943B010C94D91C0C94AC1D1A
:100030000C94F6170C943B010C943B010C943B017F
:100040000C943B010C943B010C943B010C943B0140
:100050000C943B010C948E180C943B010C943B01C6
:100060000C943B010C943B010C943B010C943B0120
:100070000C943B010C943B010C943B010C943B0110
:100080000C943B010C943B010C943B010C943B0100
:100090000C943B010C943B010C943B010C943B01F0
:1000A0000C943B010C943B010C943B0100000000BC
:1000B00000001700070009000D000E0000000600F8
:1000C0000000100012036B006500790062006F00F1
:1000D0006100720064000000160371006D006B0087
:1000E0006200750069006C00640065007200000029
:1000F0000403090409023B00020100A0FA090400FC
:10010000000103010100092111010001224400073F
:100110000581030800010904010001030000000932
:10012000211101000122B6000705820320000112FF
:1001300001000200000008EDFE6060010001020005
:100140000105010902A10185020901A100050919A2
:10015000012908150025019508750181020501098D
:100160003009311581257F950275088106093815FA
:1001700081257F950175088106050C0A38021581D5
:10018000257F950175088106C0C005010980A10180
:10019000850319012AB700150126B70095017510CE
:1001A0008100C0050C0901A101850419012AA002E2
:1001B000150126A002950175108100C005010906F0
:1001C000A1018506050719E029E715002501950815
:1001D000750181020507190029EF1500250195F029
:1001E000750181020508190129059505750191021E
:1001F000950175039101C005010906A101050719C3
:10020000E029E71500250195087501810295017522
:100210000881010507190029FF150026FF00950632
:1002200075088100050819012905150025019505A6
:1002300075019102950175039101C00011241FBE43
:10024000CFEFDAE0DEBFCDBF11E0A0E0B1E0EEEE2F
:10025000F0E402C005900D92AE39B107D9F722E063
:10026000AEE9B1E001C01D92A03AB207E1F70E94E9
:10027000A3100C9424200C940000811108C084E188
:10028000611101C08AE10E94640381E00895813018
:10029000E1F782E16111F7CF83E1F5CF811111C060
:1002A000633078F4443068F484E0689FF0011124EE
:1002B000E40FF11DEE0FFF1FE455FF4F8591949160
:1002C000089581E090E008950E944E01089581E034
:1002D00008950E946701089581E008950E946701D2
:1002E00008950E946E01089508950E947401089572
:1002F000A6E0B0E0EEE7F1E00C94801F49835A835A
:100300009E833091A50189819A8131111AC03E8165
:10031000332399F0222389F00E941E07182F682F9B
:1003200089819A810E94FB0669817A81812F0E94CE
:100330001C0E2696E3E00C949C1F0E940C07182FBD
:10034000F3CF0E941E0769817A81F1CFFC01262F2D
:100350004081518162817381848195810E947801FD
:100360000895CF93DF93D82FC92F61E00E94A60193
:100370006D2F7C2F0E946901DF91CF910895CF935B
:10038000DF93D82FC92F60E00E94A6016D2F7C2F2C
:100390000E947501DF91CF91089581E008950E9438
:1003A000CD010895CF93C82F0E94CD058C2F0E94B8
:1003B000CF012FEF84E39CE0215080409040E1F793
:1003C00000C00000CF91089581E00E94D2010E94F8
:1003D000B218089580E00E94D2010E94C3180895C7
:1003E0000F931F93CF93DF938C0161E00E94A601CE
:1003F000EC01B8010E9471018823B1F1B801CE016E
:100400000E94C915882381F1B801CE010E94E8112C
:10041000882351F1B801CE010E94BD11882321F13A
:10042000F8018581882381F0CA35FCE7DF0739F1BF
:1004300078F4C130ECE7DE07F9F0C330FCE7DF0702
:10044000C9F0C115DC4771F0C8010E946C010DC0F4
:10045000CB35ECE7DE07B1F0CC35DC47A9F70E94DD
:10046000520BF2CF0E94E40180E0DF91CF911F9107
:100470000F9108950E94640B0E94EA01F5CF0E943B
:100480005C0BE2CF0E94600BDFCF0E94D3170E946B
:100490006C0208950E9470020E94D8170895089572
:1004A00081E008950895CF93DF93D82F0E945002E2
:1004B000C82F882319F08D2F0E9452028C2FDF91B4
:1004C000CF9108950895CF93C82F0E944F028C2F8B
:1004D0000E945302CF91089580E00E946302089524
:1004E0000E940F160E9463020895CF930E940F1678
:1004F000C82F8091A0018C1779F0C093A0010E94B1
:1005000062186093A1017093A2018093A30190935C
:10051000A4018C2F0E946302CF910895ADE0B0E05A
:10052000E4E9F2E00C94811F488759876A877B874A
:100530008C879D8791110E945D0A1F8286E0FE01D3
:100540003896DE01119601900D928A95E1F78D8122
:1005500081110DC029813A814B815C816D817E8141
:100560008F810E94A3092D96E2E00C949D1FCE017D
:1005700001960E94B1018111EDCFF5CFFC0184817C
:10058000813021F4808191810E9450070895662373
:1005900029F00E9456130E942C1408950E94B4134F
:1005A000FACFCF93C82F882399F08CEF8C0F813A24
:1005B00088F48C2F0E94B216882329F08C2F0E9479
:1005C00057170E94F50A8C2F0E9440170E94F50AC7
:1005D000CF91089580E28C0F883048F4C77081E095
:1005E00001C0880FCA95EAF70E943E0AEFCF8BE55B
:1005F0008C0F833038F42C2F2452330BC9010E9406
:100600004516E6CFE8E5EC0FEB3150F4F0E0EE0FE5
:10061000FF1FE95EFE4F808191810E946B16D8CF4B
:1006200083E38C0F8331A0F661E08C2F0E94C70218
:10063000CFCF882381F19CEF980F913A28F40E9444
:1006400057170E94F50A089590E2980F983050F4D9
:10065000877091E001C0990F8A95EAF7892F0E946F
:10066000440AEFCF9BE5980F933028F480E090E0A8
:100670000E944516089598E5980F9B3128F480E074
:1006800090E00E946B16089593E3980F933118F44D
:1006900060E00E94C70208951F93CF93DF93182F45
:1006A000EB010E94D102209739F4812F0E94190397
:1006B000DF91CF911F9108958FE99FE00197F1F7A6
:1006C00000C000002197EFCF60E070E0893311F4A3
:1006D00060E570E00E944C030895882321F00E9499
:1006E0003E0A0E94F50A0895882321F00E94440AD8
:1006F0000E94F50A0895A0E0B0E0E1E8F3E00C9470
:100700007B1F6C01D62FC72FFC0115810681029536
:100710000F700E94330AE82E8823F9F0E12E11238E
:10072000E1F08C2F807F803461F080E28D0F883083
:10073000F0F08C2F807E803221F4D230C0F0002384
:10074000B1F08091880282FF12C082E00E94250BE6
:100750000E94330A91E0E82EE926EC2FE295EF7033
:10076000C03CB0F5F0E0EA5DFF4D0C946B1FE12C4E
:10077000F4CF0C2F0F70C03110F00295007F1123C1
:1007800099F0002359F080E28D0F883010F0D111DC
:1007900007C0802F0E943E0A0E94F50A8D2F51C08B
:1007A000802F0E944F0AF8CF8D2F0E94190300233B
:1007B00079F080E28D0F883010F0D11104C0802FC5
:1007C0000E94440A03C0802F0E94550A0E94F50A25
:1007D000EE2089F00E942F0A80FD0DC0F6011582DF
:1007E0000E94290A0E945806C6010E9494050E9490
:1007F000290A0E946806CDB7DEB7E8E00C94971F7F
:10080000FC2FFF70FF2EC07FC03219F0F29480EFF2
:10081000F822DD2341F0D130D1F1112309F444C095
:100820000023F1F0BBCF8091880282FD15C0112317
:1008300059F0FF2029F08F2D0E943E0A0E94F50AF0
:1008400080E00E94D102C4CF80E00E941903FF2003
:1008500009F4BECF8F2DB4CF112369F0011104C06C
:100860008F2D0E946D03B4CF013009F0B1CF8F2DD1
:100870000E94750AADCF0111ABCF8F2D0E9474037A
:100880008F2D0E94810A8F2D0E94640AA1CF11230F
:1008900021F0063008F09CCFE3CF053008F098CF68
:1008A0008F2D0E94740394CF0023D1F3D93349F4E0
:1008B0002FEF87EE93E0215080409040E1F700C099
:1008C00000008D2F0E94190383CF8C2F869586956B
:1008D0008370882369F0813009F07ACF8D2F9C2FA7
:1008E0009370111102C080E090E00E946B1670CFEF
:1008F0008D2F9C2F9370111102C080E090E00E9418
:10090000451666CF612F8D2F0E94C70261CF8C2FB5
:100910008370811139C0111129C04D2F4295469520
:100920004770440F440F2D2F2F7030E0042E02C06B
:10093000220F331F0A94E2F780E090E0D4FF09C051
:100940008FE090E002C0880F991F4A95E2F78095EA
:100950009095C695C695C370822B932BC23071F0CB
:10096000C33079F0C13039F00E9428060E940F167A
:100970000E9463022DCF0E941F06F8CF0E9431060D
:10098000F5CF0E941C06F2CF112361F1C0FFEECF1C
:100990004D2F429546954770440F440F2D2F2F70D1
:1009A00030E0042E02C0220F331F0A94E2F780E0E9
:1009B00090E0D4FF09C08FE090E002C0880F991F3B
:1009C0004A95E2F780959095C695C695C370822B9F
:1009D000932BC23069F0C33071F0C13031F00E9406
:1009E0009306C4CF823010F2D3CF0E948A06BECFC6
:1009F0000E949C06BBCF0E944006B8CFCF70112347
:100A000039F08C2F0E9458068D2F0E946D03AECFB7
:100A10008D2F0E9474038C2F0E946806A7CFD23FAF
:100A200031F170F4D03FB9F0D13FB1F1112309F4A5
:100A300051C0002309F44BC08D2F0E94D10296CFE4
:100A4000D33FE1F0D43F21F11111F3CF011150C098
:100A50008C2F8F71E1CF112341F0053008F086CF44
:100A60008C2F8F710E947A0681CF0530F7CF8C2FA3
:100A70008F711111D1CF0E94580678CF112329F020
:100A80008C2F8F710E944C0671CF0E9447066ECF4B
:100A90008091880282FD06C08C2F8F71112309F48A
:100AA000BBCFE9CF112349F0CF718C2F0E9458069C
:100AB00063E08C2F0E94070B59CF81E00E94250B29
:100AC000023008F453CF82E00E94250B4FCF8C2FC9
:100AD0008F71D1CF002309F4BBCFD93349F4EFEFA5
:100AE000F7EE23E0E150F0402040E1F700C00000C5
:100AF0008D2F0E9419033ACF0F931F93CF93DF934B
:100B0000EC01688179818D810E945D078C010E94D2
:100B1000A5060E941B06B801CE010E947B03DF914F
:100B2000CF911F910F910895CF93DF93EC018C81AA
:100B3000882399F0CE010E94F001811111C00E941A
:100B4000330A882351F08D81882339F080918802FF
:100B500082FF03C082E00E94250BDF91CF910895B0
:100B6000CE010E947C05CE010E94BF01F6CF80E03D
:100B700090E00E94451680E090E00E946B160E9473
:100B80005D0A0E94F50A0E9449140E942C140895DF
:100B90000E946E170E94B70508950E944C0A0E9499
:100BA000C8050895282F92959F70963091F060F4B3
:100BB000925F9F70923030F481E0203F79F030F402
:100BC000283E30F080E008959A5FF3CF243FD1F7BC
:100BD000089581E0283EE0F3213FF9CF0895FC011C
:100BE0008481882339F0808191810E9450070E947E
:100BF000D205089580E00895A6E0B0E0E2E0F6E0D6
:100C00000C94811F2696E2E00C949D1FA7E0B0E0B3
:100C1000ECE0F6E00C94811F2796E2E00C949D1F17
:100C200008950E94100608950E9411069093B10144
:100C30008093B001089508950E94140608952091AC
:100C4000B0013091B101822B932B0E9414060895BC
:100C50002091B0013091B101822393230E941406A8
:100C600008952091B0013091B101822793270E940D
:100C7000140608950E94100608950E943A060895E9
:100C80000E943D069093AF018093AE01089580E0ED
:100C900090E00E944006089521E030E0A90102C0E2
:100CA000440F551F8A95E2F7CA010E944006089535
:100CB00021E030E002C0220F331F8A95E2F78091D5
:100CC000AE019091AF01822B932B0E9440060895B4
:100CD00021E030E002C0220F331F8A95E2F7209511
:100CE00030958091AE019091AF01822393230E94B1
:100CF0004006089521E030E002C0220F331F8A959C
:100D0000E2F78091AE019091AF01822793270E9474
:100D1000400608952091AE013091AF01822B932BB4
:100D20000E94400608952091AE013091AF018223C8
:100D300093230E94400608952091AE013091AF01A7
:100D4000822793270E944006089508959B016770AB
:100D500091E001C0990F6A95EAF763E0369527950F
:100D60006A95E1F7220F331F220F331FFA01E20FBA
:100D7000F31F40E050E0682F70E08191DF01119790
:100D80009B01042E02C0369527950A94E2F7217044
:100D900021952827292328272C934F5F5F4F443024
:100DA000510559F708959C01982F977083E0369567
:100DB00027958A95E1F7220F331F220F331FFB017E
:100DC000E20FF31F40E050E080E0219130E0092E77
:100DD00002C0369527950A94E2F721703327042E36
:100DE00001C0220F0A94EAF7822B4F5F5F4F443015
:100DF000510559F70895282F862F933060F4243039
:100E000050F434E0939FB0011124620F711D46EA43
:100E100051E00E94A6060895282F933068F484308C
:100E200058F434E0939FC001112466EA71E0820F08
:100E3000911D0E94D306089580E00895A0E0B0E0DF
:100E4000E4E2F7E00C947A1F8C01E090AE01F090A0
:100E5000AF018091B0019091B101E82AF92ACFE069
:100E6000D0E0CC24C394D12CC6010C2E02C0880F34
:100E7000991F0A94E2F78E219F21892B49F421972B
:100E800098F7B12C8B2DCDB7DEB7E9E00C94961F07
:100E9000BC2EB8018C2F0E94280E019781F3F2CF4F
:100EA000CF93DF93D82FC92F0E941E076D2F7C2F61
:100EB0000E94280EDF91CF9108951F93CF93DF9367
:100EC000162FD72F9091A501992341F0862F972FA8
:100ED0000E945007DF91CF911F910895882381F0E0
:100EE000862F972F0E941E07C82F682F812F9D2FB6
:100EF0000E94FB06612F7D2F8C2F0E94280EEACFC7
:100F0000862F972F0E940C07C82FF4CF0F931F93A3
:100F1000CF93E091B201C7E08091B3018E1304C07A
:100F2000CF911F910F9108950E2F10E0CE9FF001E9
:100F30001124EC54FE4F2081318142815381648120
:100F4000758186810E940606F8013196E770E4CF2C
:100F50002091EC013091ED014091EE015091EF01B3
:100F60006091F0017091F1018091F2010E940606FA
:100F700008958091F201803178F48091F101882305
:100F800059F0E091B2012091B3013091ED0140910F
:100F9000EC0157E02E1301C008956E2F70E05E9FA4
:100FA000F0011124DF01AC54BE4F14968C911497BC
:100FB000882361F111968C911197831327C08C912E
:100FC000841324C015968C91159781111FC0129619
:100FD0008D919C91A091EE01B091EF018A1B9B0B2A
:100FE000883C910598F48091F2018F708061809324
:100FF000F201E654FE4F80818F70806180838CEE19
:1010000091E00E9494050E9486070895FB013196A5
:10101000E770C0CFE091B2019091B30127E0E913EE
:1010200002C080E00895AE2FB0E02E9FF0011124A1
:10103000EC54FE4F3181361306C03081381303C0A3
:101040003581341304C0FD013196E770E8CF81E0AB
:1010500008958F929F92AF92BF92DF92EF92FF928C
:101060000F931F93CF93DF93CDB7DEB72D970FB6B6
:10107000F894DEBF0FBECDBF8C0186E0F801DE0123
:10108000189601900D928A95E1F7F801E080F580BD
:10109000A280B38084819CEE892E91E0992E90915C
:1010A000F00191111BC0882309F4FCC0FF2009F452
:1010B0003DC1C8010E94EF05882309F437C187E0CC
:1010C000F801D40101900D928A95E1F7C4010E94C4
:1010D000BE020E94B9070E94A807E4C0D090F101A7
:1010E0002091EE013091EF01A501421B530BDD2051
:1010F00009F4DBC0483C510508F0A6C0882309F478
:10110000D1C09091ED0191808091F201803108F081
:101110006BC0991228C09091EC019E1124C0F1106F
:101120005DC08F7080618093F2010E94A8078CEEF1
:1011300091E00E9494058091F201F8018683F12CE0
:101140008F2D2D960FB6F894DEBF0FBECDBFDF9169
:10115000CF911F910F91FF90EF90DF90BF90AF90D4
:101160009F908F900895F11039C040E0692D8E2D29
:101170000E940A0840E0692D8E2D0E940A08F82E70
:101180008111DDCF888599850E945007292F2295EE
:101190002F70903450F49F70223080F0992399F092
:1011A000F8019681903178F4CBCF2A5F2F702230EE
:1011B00078F0C8010E949405FD2CC2CF992319F044
:1011C000882309F4BDCF805E883008F4B9CFF1CF11
:1011D000803F08F4B5CF815F8230F7CF8091F20174
:1011E00081608093F201ABCF991207C09091EC011E
:1011F0009E1103C0FF2009F479C0C8010E94EF05C9
:10120000882309F493C0FF2009F490C08091F20173
:10121000803288F02091EC013091ED013A832983EE
:10122000BC82AB829091F0019D831E828F83CE01A0
:1012300001960E94940587E0F801ACEEB1E00190C0
:101240000D928A95E1F745CF9091F2019031A0F48B
:10125000488559856A857B858C859D850E94FC051E
:101260008CEE91E00E94940587E0F40111928A953A
:10127000E9F70E94A80763CF8823A1F02091ED0130
:1012800081812813BACF8091EC018E11B6CFF11075
:10129000B4CF9683C8010E94940587E0F4011192AF
:1012A0008A95E9F7FF24F3944BCF483C510508F0A9
:1012B00041C08823B9F3FF20C9F19091ED018181EC
:1012C00098132AC08091EC018E1126C08091F20102
:1012D00080FD19C08031B8F08683807F803F39F06F
:1012E0008681982F907F905F8F70892B8683C801AD
:1012F0000E94940587E0F801ACEEB1E001900D92F8
:101300008A95E1F7E8CE87E0F801ACEEB1E0019014
:101310000D928A95E1F7C6CFC8010E94EF058111B1
:101320008ACF8091F20181608093F201C8010E940E
:101330009405B8CF488559856A857B858C859D85C0
:101340000E94FC0591CFAEE0B0E0E9EAF9E00C9430
:10135000801F288739874A875B876C877D878E87C0
:10136000CE0108960E9429088823B1F06C85662377
:1013700041F0288539854A855B857D858E850E946B
:10138000060617E08091B2019091B30189133EC027
:101390002E96E3E00C949C1F87E0FE013896DE0158
:1013A000119601900D928A95E1F72091B301409139
:1013B000B2018C85882329F330E0C901019687703A
:1013C000992750E08417950799F097E0929FD001F4
:1013D000939FB00D1124AC54BE4FFE013196019085
:1013E0000D929A95E1F78093B3010E948607C9CFC9
:1013F0000E94CD051092B3011092B20187E0ECEE8D
:10140000F1E0DF011D928A95E9F7BBCF189FC0017B
:1014100011248C549E4F0E942908882309F4B8CFC8
:10142000E091B2011E9FF0011124EC54FE4F208187
:101430003181428153816481758186810E940606D3
:101440008091B20190E00196877099278093B20154
:1014500099CF80911B0286958695869508958091F7
:101460001B028770089590911B02977081E0911183
:1014700001C080E00895809147020895909147024D
:10148000982B909347020895982F9095809147024A
:1014900089238093470208951092470208959091FE
:1014A0004602982B909346020895982F909580912C
:1014B00046028923809346020895109246020895B9
:1014C00008950E94600A089590911C02292F2823F4
:1014D000222331F08095892380931C020E94610AA7
:1014E000089508950E94710A089590911D02292F70
:1014F0002823281729F0982B90931D020E94720A26
:10150000089590911D02292F2823222331F08095E0
:10151000892380931D020E94720A089580911D0202
:10152000882329F010921D0280E00E94720A08951B
:10153000CF93DF93C091470280914602C82BD09190
:101540001D02DD2331F00E94911681110E948E0A46
:10155000CD2B8C2FDF91CF910895CF93DF93C09146
:101560000201D09103010E94980A8883C091020170
:10157000D091030148E050E063E172E0CE010E94A7
:10158000BC1F892B59F088E0FE01A3E1B2E0019075
:101590000D928A95E1F7CE010E941C16DF91CF9142
:1015A0000895CF93DF93C0910001D09101010E9473
:1015B000980A8983C0910001D091010140E250E076
:1015C00063EF71E0CE010E94BC1F892B59F080E2CD
:1015D000FE01A3EFB1E001900D928A95E1F7CE01F3
:1015E0000E942716DF91CF910895809116018823DC
:1015F00039F08091870287FF03C00E94D10A0895C5
:101600000E94AD0A089508950E94030B08959091D9
:10161000880292FF11C098E0899F90011124622BEB
:1016200060931B020E94580680911B028695869546
:1016300086950E94040B08950E9458060895109202
:101640001B0280E00E94040B089590911B0280957C
:10165000892380931B02282F277021110DC0891721
:1016600059F09091880292FF07C0869586958695DD
:101670000E9468060E941F0B08959091880292FBB9
:10168000222720F9281769F080FB92F990938802AD
:1016900080918702909188020E94850B82E00E94CF
:1016A000250B08958091880282FB882780F991E0BC
:1016B00089270E943D0B089581E00E943D0B08950B
:1016C00080E00E943D0B08956FEF7FEF80E090E097
:1016D0000E940E20089580E090E00E94DA1F9C0195
:1016E00081E0263E3E4F09F080E0089582E090E0E0
:1016F0000E94D21F089583E090E00E94D21F0895B7
:1017000084E090E00E94DA1F0895BC0184E090E03C
:101710000E940E200895AB01BC018FE090E00E9472
:1017200002200895AB01BC0183E190E00E940220F9
:10173000089560E070E0CB010E94920B089560E094
:1017400070E0CB010E948B0B0E94990B0895A8E0DA
:10175000B0E0EDEAFBE00C94811F66EE7EEF80E0E6
:1017600090E00E940E2060E082E090E00E94F01F76
:1017700081E090E09093B1018093B00161E083E05B
:1017800090E00E94F01F60E074E184E090E00E942D
:101790000E2060E086E090E00E94F01F6FEF87E08F
:1017A00090E00E94F01F40E050E0BA0188E090E035
:1017B0000E94022060E084E290E00E94F01F60E05E
:1017C00087E190E00E94F01F60E08CE090E00E94D2
:1017D000F01F60E08DE090E00E94F01F19821A82F5
:1017E0001B821C821D821E821F82188648E050E0E8
:1017F00068E170E0CE0101960E94E01F40E050E0F9
:10180000BA0180E290E00E9402200E949F0B28967D
:10181000E2E00C949D1F0E94A70B0895682F8EE0B4
:1018200090E00E94F01F0895A6E0B0E0EAE1FCE03D
:101830000C947F1F0E9456188C0180914802909151
:1018400049028017910779F019821A820E9456186E
:10185000BC0149815A8180E090E00E948E02109381
:101860004902009348022696E4E00C949B1F0E94D4
:1018700062186093550270935602809357029093BA
:1018800058026093510270935202809353029093D6
:10189000540208950E946218609355027093560294
:1018A000809357029093580260934D0270934E02BA
:1018B00080934F02909350020895089508950E94D6
:1018C0005D0C089508950E94620C089580E29FE0E7
:1018D0000E94B0100E945E0C0E945F0C089581E08F
:1018E00008950E946F0C08950E946F0C089508954A
:1018F00008950E94770C0E94780C08950E943F0F73
:101900000E94620208950E944D180E94BC100E941D
:1019100001100E947E0C0E94630C0895A6E0B0E0C6
:10192000E4E9FCE00C94781F0E94710C81110FC057
:101930000E94140C0E94421181110E944A0C0E94C4
:101940006A140E9475022696EBE00C94941F0E9484
:10195000171010914A0280E00E94650F81130EC09B
:1019600010914B0281E00E94650F181307C010917F
:101970004C0282E00E94650F1817D1F28091590243
:1019800081FD0E946B0F0E94740CC82E8AE4A82E61
:1019900082E0B82E00E099249394802F0E94650F76
:1019A000182FF50191915F01891739F1D82ED926A9
:1019B000F12CEE24E3948D2D8E218823B1F0CC20E0
:1019C000A1F0F9820A830E9456189C838B839D8222
:1019D00091E0812F8E21811101C090E049815A81CF
:1019E0006B817C818D810E948E02F394EE0CF4E079
:1019F000FF12E1CFF501319710830F5F033069F6D5
:101A00000E94370C97CF1F93CF93DF930E942D0E28
:101A1000EC01811522E5920708F053C0811540E5DD
:101A2000940708F0DDC0803E9105F8F48D3C9105E7
:101A300008F0AEC0883A910580F4853A910508F027
:101A400099C08130910521F00497813A910550F4B5
:101A5000CE01DF91CF911F910895885A91094B973C
:101A600008F48BC0C0E0D0E0F3CF811550E49507B7
:101A7000F8F4C11580E2D80708F0CBC0C83ED10504
:101A800038F3CE019A9581159F4160F78D2F0E9402
:101A9000D10E182FCE0199270E942D0E212F30E054
:101AA000322F2227E901CC27DF71C82BD92BD0CFC9
:101AB00099270E942D0ECC27DF70C82BD92BD06A16
:101AC000C7CF803842E59407C8F5803652E59507C0
:101AD00008F067C0C03482E5D807B0F08C2F869537
:101AE0008695877020E2829FC0011124C37021E097
:101AF00030E0A90102C0440F551FCA95E2F7EA0180
:101B0000C82BD92BDC68A4CFC03252E5D50708F02A
:101B100041C08C2F8695869520E2829FC0011124BA
:101B2000C37021E030E0A90102C0440F551FCA95DF
:101B3000E2F7EA01C82BD92BDD688ACF803C52E559
:101B4000950760F48F71C03AD24508F03FC090E02D
:101B5000982F8827EC01C46FD06A7ACF805C9245B9
:101B6000809708F07FCFDC2FCC27CC27DF71C06FA8
:101B7000D06A6ECFA497D0646BCFC85AD0E0CC0F98
:101B8000DD1FC35BDE4F0990D881C02DD46460CFC8
:101B9000D0655ECFCF71D0E0DC2FCC27C16FD06A8B
:101BA00057CF86958695877020E2829FC0011124C9
:101BB000C37021E030E0A90102C0440F551FCA954F
:101BC000E2F7EA01C82BD92BDA6842CF0E94D10E86
:101BD000C82FD0E0DC2FCC27CC27DF71D06238CFE4
:101BE0008F710E94D10E65E0D695C7956A95E1F791
:101BF000CF70D0E0DC2FCC27282F30E084FF05C049
:101C000054E0220F331F5A95E1F7C22BD32BD06932
:101C10001FCF8D2F8F710E94D10E182FCE019927C3
:101C20000E942D0E212F30E0322F222722273F71D4
:101C3000282B392BE901D2CF462F672F733028F498
:101C4000443018F40E946401089580E090E0089503
:101C50000E941C0E0E94030D0895803E9105D1F153
:101C6000C8F48133910509F47FC048F489329105A5
:101C700009F46FC08A32910509F47DC00895893353
:101C80009105E1F082389105C9F08533910509F499
:101C90005BC00895843E9105D1F148F4823E9105E0
:101CA00031F1833E910541F181EE90E00895863E49
:101CB0009105C1F1873E9105E1F1089520918702D8
:101CC0002370211165C02091880223FF14C089E28E
:101CD00090E008952091870220FD43C03091880252
:101CE00030FF09C024FF4EC080E090E008952091AD
:101CF000870222FDF7CF08952091870222FD45C07B
:101D00003091880230FD44C024FFF5CFEDCF209103
:101D1000880221FFF0CF8091870284FDE5CF87EE16
:101D200090E008952091870223FFE5CF24FDDCCFCA
:101D3000F6CF2091870223FD2EC03091880231FF1B
:101D4000E3CF84EE90E008952091870225FFD3CF62
:101D5000BECF2091870225FD21C02091880223FF5C
:101D6000CACF89E390E008952091870226FFC3CF70
:101D70008AE290E008952091870226FFBCCF81E39C
:101D800090E0089583EE90E0089582EE90E008954B
:101D900080EE90E0089586EE90E0089585E390E06F
:101DA000AACF9091870292FF10C041E0282F2471A2
:101DB000243009F040E031E0282F2871283009F064
:101DC00030E0431711F02CE0822793FF10C041E070
:101DD000282F2471243109F040E031E0282F2871A8
:101DE000283109F030E0431711F02CE082273091C0
:101DF000880230FF10C051E0282F2171213009F0F6
:101E000050E041E0282F2871283009F040E05417B5
:101E100011F029E0822731FF10C041E0282F217105
:101E2000213109F040E031E0282F2871283109F0F4
:101E300030E0431711F029E0822794FD877E089552
:101E400080E008950E94640B08950E9417102FEF00
:101E500086E791E0215080409040E1F700C000000B
:101E60000E94171080E00E94650F80FF04C00E944E
:101E7000220F0E94B21808950E94250F08950E9413
:101E80006B0B811102C00E940B0C0E94760B809399
:101E900059020E94800B90938802809387020E94CF
:101EA0003C0F0E947B0B90E00E941C068091AE01CB
:101EB0009091AF010E943D06089508950E945D0F24
:101EC000089508950E94610F0895E82FF0E0E45707
:101ED000FD4F80810895089580EA8A95F1F708956D
:101EE00000C008950E946C0F0895F894E82FE295C1
:101EF000EF70F0E041A18F7021E030E0B90102C045
:101F0000660F771F8A95E2F7CB01962F9095942361
:101F100091A392A1892B82A37894089586EF0E94C1
:101F2000750F84E90E94750F84E30E94750F85E3A5
:101F30000E94750F86E30E94750F81E30E94750F62
:101F400087EF0E94750F0895A0E0B0E0EAEAFFE095
:101F50000C947B1FEC01D62E062F10E0C801895788
:101F60009E4F7C01FC0180818F3F09F445C0F894AD
:101F7000E82FE295EF70F0E091A18F7021E030E062
:101F800001C0220F8A95EAF7892F822B81A382A1B3
:101F90002095282322A378940E94700FE3E8F1E0B3
:101FA00091E0C12C81918F3F81F0A82FA295AF7055
:101FB000A05EB0E02C9130E08F7002C0359527957F
:101FC0008A95E2F72170892F211180E0C82A990FA4
:101FD00081E0E738F80731F7F70180818F3F11F092
:101FE0000E94750F61E0C11001C060E08D2D0E945C
:101FF000720FC00FD11FC882CDB7DEB7E8E00C94D6
:10200000971F0E948E0F83E0ECE8F2E0DF01982F2B
:102010001D929A95E9F7E9E8F2E0DF011D928A95B1
:10202000E9F783E00E9455100E945E0F0895A3E037
:10203000B0E0EDE1F0E10C94801F1A8219821B825E
:1020400060E0CE0101960E94A40F61E0CE010196EE
:102050000E94A40F62E0CE0101960E94A40F43E00B
:1020600050E0BE016F5F7F4F89E892E00E94BC1F85
:1020700021E0892B81F420E043E06CE872E089E8FC
:1020800092E00E945610182F0E94620F812F239613
:10209000E3E00C949C1F89819A81AB818093890233
:1020A00090938A02A0938B02E7CF0895A0E0B0E05E
:1020B000ECE5F0E10C947B1FD82EE92EF62ED72FFD
:1020C000042FC22F222379F081E080935C020E94CA
:1020D000561890935B0280935A0280E0CDB7DEB72A
:1020E000E8E00C94971FC0905C02CC20B1F3809183
:1020F0005A0290915B020E947F18059770F310E0DE
:10210000A8016D2D7E2D8F2D9D2F0E94BC1F892B28
:1021100041F0A8016D2D7E2D8F2D9D2F0E94C91F8E
:10212000CC2D10925C028C2FD9CF0E94311A0E94C4
:10213000830C0E943E1A08950E94431A0E948E0C3E
:102140000E945D1A08950E94EF170E94171A0E94BC
:10215000660C0E9495100E949C100E94790CFBCF87
:1021600090939F0180939E0108958FE891E00197DD
:10217000F1F700C000000895EF92FF920F931F93B4
:10218000CF93DF9382E080935F028CE9E82E81E0B9
:10219000F82E0AE911E0A801D70121E030E08D9185
:1021A000E82FE295EF7061E26E0F70E0EB01F881CD
:1021B0008F70E90102C0CC0FDD1F8A95E2F7CE01D6
:1021C0009C2F90959F23EB019883EE5DF0E090812A
:1021D000892B8083FA018191AF01E82FE295EF709E
:1021E00061E26E0F70E0EB01F8818F70E90102C0CF
:1021F000CC0FDD1F8A95E2F7CE019C2F90959F238F
:10220000EB019883EE5DF0E09081892B8083D1E033
:10221000AE39BD0721F60E94B51040915F02A2E6DB
:10222000B2E0ECE9F1E08E2F8E19841728F0CDB7DB
:10223000DEB7E6E00C94991F5191852F82958F703F
:10224000805E90E0EC012881E80139918E01832FB6
:1022500082958F70805E90E0EC01888190E03F7005
:1022600002C0959587953A95E2F78170880F30E026
:102270005F7002C0359527955A95E2F72170822B41
:102280008D93D1CFA0E0B0E0E8E4F1E10C947B1FA6
:10229000F12CE12C84E0C82ED12C80915F02F8163D
:1022A00030F08E2DCDB7DEB7E8E00C94971F0F2DE0
:1022B00010E0F801E456FE4F4081E42FE295EF7004
:1022C000E05EF0E02081F801E656FE4F3081E32F1A
:1022D000E295EF70E05EF0E0808190E03F7002C038
:1022E000959587953A95E2F78170880F30E04F70A9
:1022F00002C0359527954A95E2F72170822BD801C7
:10230000AE59BD4FEC919E2F93709817A1F1EE0F2F
:10231000EE0FE82BEC93EF70F0E0E657FE4FE8018C
:10232000C05ADD4F80819881890F888320E08430F6
:102330005CF0F801E35AFD4F80818F5F808360E09D
:102340008F2D0E943D0121E088818D3F5CF4F801D2
:10235000E35AFD4F80818150808361E08F2D0E9480
:102360003D0121E08881082E000C990BB6010E94E6
:10237000571F8883E22AF39490CFCF93DF93EB012A
:1023800086319C4719F50E943B0A9D819923A1F053
:102390008A7A91E0811101C090E0909364028823D1
:1023A00049F085E30E9440170E94F50A80E0DF9122
:1023B000CF91089589E2F6CF80916402882321F0BD
:1023C00085E30E945717F0CF89E2FBCF81E0EFCF82
:1023D000CF93DF93EC01FB018581882309F4D2C000
:1023E0009E0130572332310508F0B2C00E94800BA5
:1023F0009093880280938702FE01E150F047E23219
:10240000F10520F4EE5CFF4D0C946B1F8091870268
:1024100081608093870293C0809188028860809356
:1024200088028DC0809187028260F3CF80918702FD
:102430008460EFCF809187028860EBCF8091880223
:102440008160EDCF809188028260E9CF8091870220
:102450008061DFCF809187028062DBCF809187022D
:102460008064D7CF0E94CD05809187028068D1CF4C
:10247000809187028C60CDCF809188028360CFCF1E
:10248000809187028E7FC5CF80918802877FC7CFDA
:10249000809187028D7FBDCF809187028B7FB9CFDE
:1024A00080918702877FB5CF809188028E7FB7CFDA
:1024B000809188028D7FB3CF809187028F7EA9CFD4
:1024C000809187028F7DA5CF809187028F7BA1CFDE
:1024D0000E94CD05809187028F779BCF80918702E4
:1024E000837F97CF809188028C7F99CF80918702DC
:1024F00082FB992790F921E0922790FB82F990FBCB
:1025000083F987CF80918802982F909591708E7F64
:10251000892B90FB81F983CF90918702892F8F7B44
:1025200096FF806476CF0E94CD0590918702892F17
:1025300097FB87F980586DCF81E00E940E0C809147
:102540008702909188020E94850B0E94CD0580E051
:10255000DF91CF91089580E0F0CF90918702892F8D
:102560008F7E94FF806155CF90918702892F8E7F57
:1025700090FF81604ECF90918802892F877F93FFD3
:1025800088604DCF81E0E4CF282F35EB2303C001D5
:10259000112497FF04C080589109892F089580580D
:1025A0009F4FFBCF80916B0280FF0DC060910901AE
:1025B00070E0660F771F60387105C0F56115710511
:1025C000B9F1862F089581FF07C06091090184E069
:1025D000689FB0011124EFCF82FF04C06091090110
:1025E00088E0F6CF80916A028823E9F09091080193
:1025F0006091090170E0891730F093E0660F771F52
:102600009A95E1F7D8CF869F9001879F300D1124CE
:1026100083E0220F331F8A95E1F7692F70E0C9012B
:102620000E94571FC8CF68E070E0CBCF8FE70895B6
:1026300081E0089580916B0280FF0CC060910501DC
:1026400070E075956795759567956115710561F1F0
:10265000862F089581FF06C06091050170E0759591
:102660006795F3CF6091050170E082FD15C0209160
:1026700069022223B1F0909104016091050170E09C
:10268000291750F4269FA001279F500D1124692F70
:1026900070E0CA010E94571F60387105B0F28FE7E1
:1026A000089561E070E0D4CF81E0089590916E02CA
:1026B00020916F02922B20917102922B2091700237
:1026C000922B992331F098E090936A0291E09093D5
:1026D00069028D3C31F40E94D212819580936F0281
:1026E0000895E2E3E80FE231B0F5F0E0EC5AFF4D77
:1026F0000C946B1F0E94D212F1CF0E94D2128195CE
:1027000080936E0208950E94D212FACF0E941A138B
:102710008093700208950E941A138195F9CF0E9448
:102720001A1381958093710208950E941A13FACFAB
:10273000815D990B21E030E001C0220F8A95EAF714
:1027400080916D02822B80936D02089580916B02BF
:10275000816080936B02089580916B028260F9CF53
:1027600080916B028460F5CF40916E028D3C59F4EC
:1027700080916F0287FF0DC010926F02442359F4BD
:1027800010926A0208C08E3C81F480916F02181684
:102790009CF3442381F08091700290917102892B07
:1027A000811159C01092690208958F3C41F447FF8E
:1027B000F0CF10926E0280916F028823E0CF803DAF
:1027C00019F41416B4F3E5CF90917002893D29F401
:1027D0001916FCF610927002DCCF8A3D19F497FFAF
:1027E000D8CFF8CF909171028B3D29F497FFD1CFCC
:1027F00010927102CECF8C3D19F41916CCF3C9CFCB
:102800009FE2980F983090F4815D990B21E030E0C1
:10281000B90102C0660F771F8A95E2F7CB01809558
:1028200090916D02892380936D02B3CF8D3D31F479
:1028300080916B028E7F80936B02ABCF8E3D21F433
:1028400080916B028D7FF7CF8F3D09F0A2CF8091F1
:102850006B028B7FF0CF08950E94561820916E0274
:1028600030916F02232B222321F0809367029093F3
:1028700068022091700230917102232B222321F0F3
:1028800080936502909366028CE692E00E94361671
:10289000089586E0ECE6F2E0DF011D928A95E9F703
:1028A00010926A021092690210926B020895FC0164
:1028B000828181110DC0838181110AC084818111BF
:1028C00007C081E09581911101C080E08170089579
:1028D00081E0FCCFA6E0B0E0E0E7F4E10C947E1FDD
:1028E00086E0ECE6F2E09E012F5F3F4FD9010190B8
:1028F0000D928A95E1F710926E0210926F0210927B
:102900007002109271028B819C81892B890188232E
:1029100091F080916702909168020E947F189C015B
:1029200080916A028823C9F140910A0150E0421760
:10293000530708F43FC08D819E81892B882399F02D
:1029400080916502909166020E947F189C0180919F
:102950006902882309F467C04091060150E04217DC
:10296000530708F46EC0B8018CE692E00E94881705
:10297000811105C08CE692E00E94571481110E94DB
:102980002C1486E0F801ACE6B2E001900D928A9535
:10299000E1F72696E5E00C949A1F40910B019AE02E
:1029A000499FA00111244217530728F68F5F809397
:1029B0006A0202C08F3FD1F7FB80FF2059F00E94CE
:1029C000D21291E01F140CF09FEF899F802D1124EB
:1029D00080936E02FC80FF2059F00E94D21291E099
:1029E0001F140CF09FEF899F802D112480936F029C
:1029F00080916E02882309F49ECFF0906F02FF2031
:102A000009F499CF0E94C412811101C081E0809322
:102A10006E028F2D0E94C412882319F080936F02DA
:102A20008ACF81E0FBCF409107019AE0499FA00146
:102A300011244217530708F096CF8F5F80936902E5
:102A400002C08F3FD1F7FD80FF2059F00E941A137A
:102A500091E01F140CF09FEF899F802D112480932B
:102A60007002FE80FF2059F00E941A1391E01F149B
:102A70000CF09FEF899F802D11248093710280912B
:102A80007002882309F46FCFF0907102FF2009F4DF
:102A90006ACF0E94C412811101C081E0809370024C
:102AA0008F2D0E94C412882319F0809371025BCF8E
:102AB00081E0FBCF0F931F93CF93DF93C42FD22FCF
:102AC000FC0185818823C9F0409374020E94561846
:102AD000909373028093720280E28C0F883040F4EE
:102AE000C77081E001C0880FCA95EAF70E946D03A4
:102AF000DF91CF911F910F910895109174021413DB
:102B00003CC080917202909173020E947F18883CB1
:102B1000910598F5C0E2CD0F1D1741F180E2810FBC
:102B2000883040F4177081E001C0880F1A95EAF7E9
:102B30000E947403C83020F0802F0E946403D8CF15
:102B400091E08D2F877001C0990F8A95EAF7892F40
:102B50000E946D03802F0E946403D77081E001C042
:102B6000880FDA95EAF70E947403C2CF802F0E9483
:102B70006403C83008F0BCCFF0CF80E28C0F8830FF
:102B800008F0B6CFC77081E001C0880FCA95EAF798
:102B9000EACF0F93FC01CB01E851FC47E730F10588
:102BA00090F5EA59FF4D0C946B1F06E221EE41EEC1
:102BB0006AE17CE70E945A1580E00F91089507E2D0
:102BC00025EE45EE6BE17CE7F5CF06E221EE40EE27
:102BD00068E17CE7EFCF07E225EE44EE69E17CE7B0
:102BE000E9CF06E221EE42EE6CE17CE7E3CF07E2BB
:102BF00025EE46EE6DE17CE7DDCF08E221E045EE13
:102C00006EE17CE7D7CFFB018581811110927402C0
:102C100081E0D3CF90937A02809379020895E09176
:102C20007902F0917A02309729F00190F081E02D3D
:102C30000995089580E00895E0917902F0917A0273
:102C4000309721F00280F381E02D09950895DC0191
:102C5000E0917902F0917A02309739F086E08C9316
:102C60000480F581E02DCD0109950895DC01E09106
:102C70007902F0917A02309739F082E08C930680E5
:102C8000F781E02DCD0109950895A3E0B0E0EBE4D4
:102C9000F6E10C94811F9C0180917702909178025B
:102CA00082179307A1F03093780220937702E09186
:102CB0007902F0917A02309751F083E089833B8367
:102CC0002A830084F185E02DCE0101960995239693
:102CD000E2E00C949D1FA3E0B0E0E1E7F6E10C9484
:102CE000811F9C0180917502909176028217930753
:102CF000A1F03093760220937502E0917902F09171
:102D00007A02309751F084E089833B832A830084E0
:102D1000F185E02DCE01019609952396E2E00C9411
:102D20009D1F20910201309103012E5F3F4F809142
:102D300016018823A9F08091870287FF11C0209196
:102D40000001309101012E5F3F4F9DE180E0F901CC
:102D500040812F5F3F4F41118F5F9150C0F7089521
:102D600095E0F4CF882321F190911601992311F178
:102D70009091870297FF1EC0982F969596959695ED
:102D8000803FB0F4E0910001F0910101E90FF11DE5
:102D9000228130E0877041E050E0BA0102C0660F46
:102DA000771F8A95E2F72623372381E0232B91F4BE
:102DB00080E008952091020130910301F9013296DB
:102DC000285F3F4F9191981721F0E217F307D1F751
:102DD000EFCF81E008959C01FC0132968FEF90E0E7
:102DE0004191461751F08F3F19F4411101C0892FCD
:102DF0009F5F9630A9F78F3F09F40895280F311D82
:102E000087FD3A95F901628308959C01FC01329691
:102E1000285F3F4F8191861303C0DF0111971C92F9
:102E2000E217F307B9F70895FC01862F869586957A
:102E30008695603F60F4E80FF11D677021E030E097
:102E400001C0220F6A95EAF78281822B828308955E
:102E5000FC01862F869586958695603F80F4E80F65
:102E6000F11D677081E090E09C0102C0220F331FCA
:102E70006A95E2F7B90160958281682362830895BB
:102E8000682F80911601882359F08091870287FF6F
:102E900007C080910001909101010E9414170895CC
:102EA00080910201909103010E94EB160895682F12
:102EB00080911601882359F08091870287FF07C00F
:102EC00080910001909101010E942817089580913E
:102ED0000201909103010E94051708958091160147
:102EE000882379F08091870287FF0BC0E091000171
:102EF000F091010132968EE1DF011D928A95E9F78A
:102F00000895E0910201F0910301329686E0F4CF3A
:102F1000DC01FB0111969C9111978181981322C0CD
:102F200012968C911297882319F0928189131AC0F6
:102F300013968C911397882319F09381891312C0EB
:102F400015968C911597882319F0958189130AC0DD
:102F500014969C91992321F081E02481291303C0C8
:102F600080E001C081E08170089508950E94B51746
:102F700008958F5F80937B020E94B617089583E0C7
:102F800080937B020E94B61708950E94B917089596
:102F900081E080937B020E94B61708950E94C817B3
:102FA0000895089508950E94D217089508950895E8
:102FB0000E94D1170895CF930E94D6170E94171030
:102FC0000E94D717C0E08C2F0E94650F811105C0A9
:102FD000CF5FC330C1F7CF91089581E0FCCF85B7B3
:102FE000806885BF85B7806885BF08951F921FB62A
:102FF0001F9211248F939F93AF93BF9380917C0274
:10300000811113C080918F0290919002A091910242
:10301000B09192024196A11DB11D80938F029093B1
:103020009002A0939102B0939202BF91AF919F91B1
:103030008F911F901FBE1F9018958091970284302A
:1030400031F10E94450210927C0288E190E020E478
:103050000FB6F894A895809360000FBE209360008F
:1030600083B7817F846083BF83B7816083BF789497
:10307000889583B78E7F83BF0FB6F894A89580910B
:103080006000886180936000109260000FBE089518
:103090000E94CD050E944A02089582E084BD93E01B
:1030A00095BD9AEF97BD80936E0008952FB7F89461
:1030B00080918F0290919002A0919102B091920222
:1030C0002FBF0895A4E0B0E0E8E6F8E10C94811F7A
:1030D0008FB7F89420918F02309190024091910225
:1030E0005091920229833A834B835C838FBF69811D
:1030F0007A818B819C812496E2E00C949D1F9C0137
:103100004FB7F89480918F0290919002A091910214
:10311000B09192024FBF821B930B089578941F9237
:103120001FB61F9211248F939F93AF93BF938091EB
:103130008F0290919002A0919102B091920201961B
:10314000A11DB11D80938F0290939002A0939102D4
:10315000B0939202BF91AF919F918F911F901FBE2C
:103160001F90189587E797E79093010880930008D0
:1031700088E19AE00FB6F894A895809360000FBE9E
:1031800090936000FFCF88E19AE00FB6F894A8957D
:10319000809360000FBE90936000FFCF8091850206
:1031A0000895282FCB01BA01309197023430E1F411
:1031B0002F702093E9002FEF3091E80035FD07C014
:1031C00035ED3A95F1F7000021502111F5CF20910E
:1031D000E80025FF09C040E050E00E94D51A809128
:1031E000E8008E778093E8000895BC0143E050E04A
:1031F00082E00E94D1180895BC0146E050E082E0D0
:103200000E94D1180895BC0140E250E082E00E9483
:10321000D1180895CF93DF93D82FC92F48E050E0FD
:10322000682F792F81E00E94D11888E0ED2FFC2FC4
:10323000ADE7B2E001900D928A95E1F7DF91CF9171
:10324000089580919602811109C00E945D1C0E9420
:10325000BA1C8091E20084608093E200089510928D
:10326000960208950E94C81708956091930281E024
:10327000611101C080E00E94BF17089590919702EC
:1032800081E0943009F080E0609193020E94C517BC
:10329000089542E061EC81E00E94D91B42E261ECBA
:1032A00082E00E94D91B9091970281E0943009F04E
:1032B00080E0609193020E94B9170895809199026D
:1032C000893089F148F4823009F4A0C0833009F4D0
:1032D0005AC0813041F008958A3009F487C08B309C
:1032E00009F46CC0089580919802813A09F04AC0AF
:1032F0008091E800877F8093E80080919C02909104
:103300009D02892B61F060E080E090E070E00E9417
:10331000241B8091E8008B778093E800089568E093
:103320008DE792E0F3CF80919802813259F5809138
:103330009C0290919D02029728F58091E800877F7A
:103340008093E8008091E80082FF18C09091F3001C
:103350008091F200029731F48091F100813011F0F8
:10336000863021F48091F100809385028091E800FD
:103370008B778093E8000E940D1C04C08091970217
:103380008111E0CF089580919802813AD9F7809118
:103390009C0290919D02892BA9F78091E800877F7C
:1033A0008093E8008091E80080FFFCCF80911601B7
:1033B0008093F1008091E8008E77DBCF80919802B6
:1033C000813201F780919C0290919D02892BD1F668
:1033D0008091E800877F8093E8000E940D1C809117
:1033E0009A02809316010E94CD050895809198025B
:1033F000813241F68091E800877F8093E8000E9447
:103400000D1C80919B028093860208958091980202
:10341000813A09F0B7CF8091E800877F8093E80078
:103420008091E80080FFFCCF80918602C1CF84B7F5
:10343000877F84BF0FB6F894A8958091600088615B
:1034400080936000109260000FBE80E890E00FB69D
:10345000F89480936100909361000FBE0E94CE1794
:1034600008950E945D1C0E94BA1CE2EEF0E080818B
:103470008460808378940E943D1F08958CE091E0E1
:103480000E940A16089580919702853031F4809148
:103490009702853019F00E94481808950E941D185F
:1034A00080919502882399F30E94DB17882379F392
:1034B0000E94BF1A0E94CD05EACF08959A0140915B
:1034C0009E0250919F020E94661A0895AC01CB01A2
:1034D000D901252F332723303105E1F058F421306D
:1034E0003105C9F122303105D9F180E090E020E0CA
:1034F00030E01EC02132310521F122323105A9F719
:10350000892BC1F16130710581F786EB90E021E4F0
:1035100031E00EC0CA019927413069F0823091052F
:1035200069F0E0EFF0E0892B01F7849190E09F01D2
:103530002D933C930895E8EDF0E0F7CFE4ECF0E054
:10354000F4CF892B91F06130710579F689E090E034
:103550002FE131E0EDCF82E190E02FE231E0E8CFE2
:103560008BE390E024EF30E0E3CF89E090E026E0C9
:1035700031E0DECF84E490E027EF31E0D9CF80E185
:1035800089BD82E189BD09B400FEFDCF8091D800DC
:103590008F7D8093D8008091E00082608093E0006E
:1035A0008091E00081FDFCCF0895AF92BF92CF9251
:1035B000DF92FF920F931F93CF93DF936C01EB0188
:1035C0008A010E942C1CF82E811123C001151105BF
:1035D00039F0F80180819181C81BD90BC80ED91E22
:1035E000A12CB12C2097A9F08091E80085FD22C084
:1035F0008091E8008E778093E80001151105A1F015
:10360000F801808191818A0D9B1D9183808385E0E3
:10361000F82E8F2DDF91CF911F910F91FF90DF90AA
:10362000CF90BF90AF9008950E942C1C8823E1F2A8
:10363000F82EEFCFF60181916F018093F100219771
:10364000FFEFAF1ABF0ACECFFC019B0180919E0213
:1036500090919F028617970718F0672B61F0C901B8
:1036600040E0009771F441110CC08091E80082FFA6
:1036700035C080E008958091E8008E778093E8005F
:10368000EECF209197022223A9F12530A9F12091B4
:10369000E80023FD2DC02091E80022FDE6CF209117
:1036A000E80020FFDECF3091F3002091F200009778
:1036B00019F02830310558F041E02830310509F083
:1036C00040E02091E8002E772093E800CACF419196
:1036D0004093F10001972F5F3F4FE9CF8091970210
:1036E000882341F0853041F08091E80083FFBDCF11
:1036F00081E0089582E0089583E00895FC019B0134
:1037000080919E0290919F028617970718F0672B71
:1037100061F0C90140E0009771F441110CC0809143
:10372000E80082FF36C080E008958091E8008E773F
:103730008093E800EECF209197022223B1F125304B
:10374000B1F12091E80023FD2EC02091E80022FD78
:10375000E6CF2091E80020FFDECF3091F3002091EA
:10376000F200009719F02830310558F041E0283078
:10377000310509F040E02091E8002E772093E80021
:10378000CACF44914093F100319601972F5F3F4F8C
:10379000E8CF80919702882341F0853041F08091F5
:1037A000E80083FFBCCF81E0089582E0089583E0C4
:1037B0000895982F973028F08F708093E90081E06A
:1037C00008959093E900242F762F50E0981731F058
:1037D0007091EC002091ED005091F00021FD02C0AD
:1037E0009F5FE8CF3091EB003E7F3093EB0030914C
:1037F000ED003D7F3093ED003091EB003160309370
:10380000EB007093EC002093ED005093F0002091BA
:10381000EE0027FDE5CF80E008958091980287FFB4
:1038200013C08091E80082FF06C08091E8008B778A
:103830008093E80004C0809197028111F2CF08952F
:10384000809197028823D9F38091E80080FFF8CF18
:103850008091E8008E77ECCF2091E4003091E50074
:1038600095E6A9018091EC008170882331F0809168
:10387000E80080FF06C080E008952091E80022FD66
:103880001BC080919702882391F0853091F0809140
:10389000EB0085FD10C02091E4003091E500421757
:1038A000530701F391509111DCCF84E0089582E039
:1038B000089583E0089581E008950E94CC1C0E9441
:1038C000D41CE0EEF0E0808181608083E8EDF0E0E0
:1038D00080818F77808319BCA7EDB0E08C918E7FBB
:1038E0008C9380818F7E80831092960208950F932F
:1038F0001F93CF93DF930E94CC1C0E94D41CC8ED71
:10390000D0E088818F7788838881806888838881E8
:103910008F7D888319BC10929702109293021092A7
:1039200095021092940200EE10E0F80180818B7FE6
:10393000808388818160888342E060E080E00E942B
:10394000D91BE1EEF0E080818E7F8083E2EEF0E033
:10395000808181608083808188608083F80180819C
:103960008E7F8083888180618883DF91CF911F91D2
:103970000F910895E8EDF0E080818F7E8083E7ED80
:10398000F0E080818160808384E082BF81E0809369
:1039900096020E94771C0895E8EDF0E080818E7F0A
:1039A00080831092E20008951092DA001092E100F4
:1039B00008951F920F920FB60F9211242F933F93E9
:1039C0004F935F936F937F938F939F93AF93BF9327
:1039D000EF93FF938091E10082FF0BC08091E200A2
:1039E00082FF07C08091E1008B7F8093E1000E94FD
:1039F0003C1F8091DA0080FF19C08091D80080FFC1
:103A000015C08091DA008E7F8093DA008091D90012
:103A100080FF94C080E189BD82E189BD09B400FEC8
:103A2000FDCF81E0809397020E9421198091E100EF
:103A300080FF19C08091E20080FF15C08091E200F4
:103A40008E7F8093E2008091E20080618093E200AB
:103A50008091D80080628093D80019BC85E0809363
:103A600097020E9435198091E10084FF29C080915E
:103A7000E20084FF25C080E189BD82E189BD09B4EF
:103A800000FEFDCF8091D8008F7D8093D80080917B
:103A9000E1008F7E8093E1008091E2008F7E809331
:103AA000E2008091E20081608093E20080919302C5
:103AB000882309F449C084E0809397020E943E194C
:103AC0008091E10083FF29C08091E20083FF25C03F
:103AD0008091E100877F8093E10082E080939702EC
:103AE000109293028091E1008E7F8093E10080919B
:103AF000E2008E7F8093E2008091E20080618093FB
:103B0000E20042E060E080E00E94D91B8091F0007A
:103B100088608093F0000E943219FF91EF91BF916D
:103B2000AF919F918F917F916F915F914F913F9155
:103B30002F910F900FBE0F901F90189519BC1092E7
:103B400097020E942F1972CF8091E30087FF02C075
:103B500083E0B2CF81E0B0CF1F920F920FB60F92E9
:103B60001124FF920F931F932F933F934F935F93D3
:103B70006F937F938F939F93AF93BF93CF93DF9375
:103B8000EF93FF9309EE10E0F8018081C091EC0003
:103B9000C795CC27C7958F70FC2EF82A1082C0EFEE
:103BA000D0E08881877F888378940E94F51DF80192
:103BB0001082888188608883CF2DCF70C083FF9169
:103BC000EF91DF91CF91BF91AF919F918F917F91B5
:103BD0006F915F914F913F912F911F910F91FF90A6
:103BE0000F900FBE0F901F901895AAE2B0E0EBEF78
:103BF000FDE10C94801F88E992E0FC010196209180
:103C0000F100208322E0803A9207B9F70E945E1902
:103C10008091E80083FF38C08091980290919902CA
:103C20009A3090F5E92FF0E0E359FF4D0C946B1FAB
:103C3000803889F0823841F580919C028F708730FE
:103C400018F58093E9008091EB0085FB882780F9C7
:103C50001092E90006C08091940290919502911112
:103C600082609091E800977F9093E8008093F10044
:103C70001092F1008091E8008E7723C0811116C068
:103C800080919A02813011F18091E80083FF0AC08F
:103C90008091E800877F8093E8008091EB0080624C
:103CA0008093EB00AA96E3E00C949C1F823061F7AE
:103CB00080919A02882389F01092E9008091E800AF
:103CC000877F8093E8000E940D1CDECF81E0933057
:103CD00009F080E080939502EFCF80919C028F7075
:103CE0002FEF280F263080F68093E9002091EB001B
:103CF00020FFE2CF933031F48091EB00806280931B
:103D0000EB00DACF9091EB0090619093EB0021E013
:103D100030E0A90102C0440F551F8A95E2F7409395
:103D2000EA001092EA008091EB008860E8CF8111F0
:103D3000ABCF10919A021F778091E3008078812B9E
:103D40008093E3008091E800877F8093E8000E94E1
:103D50000D1C8091E80080FFFCCF8091E30080681B
:103D60008093E30083E0111101C082E08093970209
:103D70008BCF8058823008F087CF80919A02909143
:103D80009B028C3D53E0950799F583E08A838AE294
:103D900089834FB7F894DE01139620E03EE051E2AC
:103DA000E32FF0E050935700849120FF03C08295E9
:103DB0008F703F5F8F708A30C8F0895C90E08D9380
:103DC0009D932F5F243161F74FBF8091E800877F7B
:103DD0008093E8006AE270E0CE0101960E94241B05
:103DE0008091E8008B778093E8004ECF805DE6CF2E
:103DF00060919C0270919D02AE014F5F5F4F0E94E7
:103E00005E1ABC01892B09F43FCF8091E800877FBF
:103E10008093E80089819A810E947E1BE1CF8038DF
:103E200009F032CF8091E800877F8093E80080918D
:103E300093028093F1001ECF811126CF90919A02B8
:103E4000923008F021CF8091E800877F8093E800CE
:103E5000909393020E940D1C80919302882331F06D
:103E600084E0809397020E9449190ECF8091E3006D
:103E700087FDF6CF81E0F5CF0895CF93809197022B
:103E8000882399F08091E900C091EC00C795CC2778
:103E9000C7958F70C82B1092E9008091E80083FDD0
:103EA0000E94F51DCF70C093E900CF91089597FB54
:103EB000072E16F4009407D077FD09D00E94A81FA2
:103EC00007FC05D03EF4909581959F4F089570951D
:103ED00061957F4F0895EE0FFF1F0590F491E02D3F
:103EE00009942F923F924F925F926F927F928F929E
:103EF0009F92AF92BF92CF92DF92EF92FF920F9379
:103F00001F93CF93DF93CDB7DEB7CA1BDB0B0FB682
:103F1000F894DEBF0FBECDBF09942A88398848883F
:103F20005F846E847D848C849B84AA84B984C884D5
:103F3000DF80EE80FD800C811B81AA81B981CE0FCC
:103F4000D11D0FB6F894DEBF0FBECDBFED010895B1
:103F5000AA1BBB1B51E107C0AA1FBB1FA617B707AF
:103F600010F0A61BB70B881F991F5A95A9F78095CB
:103F70009095BC01CD010895FB01DC0104C08D9139
:103F80000190801921F441505040C8F7881B990BCB
:103F90000895FB01DC0102C001900D924150504098
:103FA000D8F70895F999FECF92BD81BDF89A992767
:103FB00080B50895A8E1B0E042E050E00C941620EE
:103FC000DC01A40FB51F4150504048F0CB01840FD5
:103FD000951F2E910E94F11F41505040D0F7089537
:103FE000262FF999FECF92BD81BDF89A019700B4B2
:103FF000021639F01FBA20BD0FB6F894FA9AF99A52
:104000000FBE08950396272F0E94F11F0E94F01FF4
:10401000252F0E94F11F242F0C94F11F0196272FAA
:104020000E94F11F0C94F01FDC01CB01FC01F999F7
:10403000FECF06C0F2BDE1BDF89A319600B40D92F4
:1040400041505040B8F70895F894FFCFB903B90331
:104050000004000465048204E803E8038704FE0406
:104060000F050F054012B4124812121216124C120C
:104070001A1250125C122612AD122A1260122E125F
:1040800064128C1232126812931238126E12761267
:104090001E125412221258123C12721282129C12D8
:1040A000AB120C124412BB127A137D1383139813B4
:1040B00098139813981398139813981398138613BA
:1040C0008B138F139513A613AC13B013E515EB15D3
:1040D000D515DF15F115F715FD15181E3E1E441EEA
:0E40E0003E1E441E971EB91E441E0F1F1C1FBD
:1040EE001E023E02280850011E0A1401CE180A199B
:1040FE000319FC18F51801E200E900EA00B500B654
:10410E0000B700CD008301CC008A019201940121F9
:10411E0002230224022502260227022A02B300B439
:10412E00006F0070009F01CB019F02A002E200E928
:10413E0000EA00B500B600B700CD008301CC008ABE
:10414E000192019401210223022402250226022754
:10415E00022A02B300B4006F0070009F01CB019FD2
:10416E0002A002353631F7F6943400FF010001004B
:0E417E0000FFFF0000010001FF0090F591F42A
:00000001FF
